:1000000002308A002B2A00000A108A100A11820787
:1000100028340C34013406340C004536A01120324B
:1000200065103010E5393A00293084008313000848
:10003000031927280230F800F701F70B1D28F80BE9
:100040001C289730F700F70B2328800B1A2808008C
:10005000300EF039F7000F300805770488000000F3
:10006000081432283328081008000808F700080E82
:100070000F39F80008008316081088100811831241
:1000800088100F3083160805F03888008312081591
:1000900000000814000035207808B00008100000A7
:1000A0000814522835207808AF0008100F30831646
:1000B000080588008312300EF700F030F705770846
:1000C0002F04F8007808AF00AF1B41282D1C8810C2
:1000D0002D18881400000811000008102E0EAF0023
:1000E0000F30AF052F08B00028202E080F39AF00C1
:1000F000B00028200800FF30831687008312A0007C
:10010000831609148914091589150F30080588000C
:1001100008108810081183128810081108100F3079
:10012000A90014200130A3002308033C031CA028CD
:100130000330B00028200530A9001420A30A942819
:100140000230B00028200530A9001420A3012308A4
:10015000033C031CB42823080420A400AD01240898
:10016000AE003B20A30AA7288A110A12462A2014AF
:100170002008831687008312A3010718A30AA0147E
:100180002008831687000030831287180130F7009B
:100190000310F70D7708A3072015200883168700A2
:1001A0000030831207190130F700F70DF70DFC300E
:1001B000F7057708A307A0152008831687000030ED
:1001C000831287190130F700F70DF70DF70DF8309E
:1001D000F7057708A307201620088316870000304C
:1001E0008312071A0130F700F70EF030F705770891
:1001F000A307A01620088316870000308312871AF1
:100200000130F700F70EF70DE030F7057708A30788
:10021000831689140030831289180130F700F70E15
:10022000F70DF70DC030F7057708A30783160915FA
:100230000030831209190130F700770CF701031819
:10024000F7177708A3072308F8008A110A12472A2C
:10025000A601A5012508073C031C40290130F70031
:100260002508F800031938290310F70DF80B342975
:1002700077082305A400A4080319A60AA50A2A29B9
:100280002608F8008A110A124C2A2A0B48294B2901
:100290004030AB004C29AB0101302902AB072B08E1
:1002A0008038AC00AD012C08AE003B2008002808C7
:1002B000073A031965290B3A03196A29063A031903
:1002C0007229023A031978297D290130A900AA0070
:1002D00045218229AD010130AE003B200230A9004A
:1002E000142082290130A9000230AA004521822968
:1002F000AD011030AE003B2082290130AD0028084E
:10030000AE003B2008000B08A4008B1383160317D4
:100310008C170C140000000083120C087F3903199D
:10032000CA290313A50003170D080313A60003171A
:100330000F080313A7002508A80057212608031754
:100340008D000313270803178F0083168C170C14D6
:100350000000000083120C0D0E0D7F390319CA290D
:100360000313A50003170D080313A60003170F08B6
:100370000313A7002508A8005721260803178D009E
:100380000313270803178F008D0A03198F0A03131D
:10039000862903170313A41B8B1708002708F801ED
:1003A00026020318D6292608F700E229F7010830AB
:1003B000A800A60DF70D270877020318F700F80D1F
:1003C000A80BD92908000C3003178D0000308F00CE
:1003D000031383210D3003178D0000308F000313AA
:1003E00083212308A4001B30A5002408A600643044
:1003F000A700CE217708A40078083030031D072A13
:10040000A51C0E2AA5190E2A251A20300A2AA51184
:1004100025122514F8077808A80057212408A600FB
:100420000A30A700CE217708A40078083030031DD9
:100430001F2AA519232A251C232A251A2030F8074C
:100440007808A80057213030A4072408A8005721B5
:100450008A110A12512A713083168F000F08FF305B
:100460008312A000831603170908C03989000313FB
:100470001F129F1200300317880083128701880122
:10048000890183131F30830503137B28B72878085D
:10049000A1002108A30028297808A2002208A300AF
:1004A000E3290230A300FA30A9001420A30B532A39
:0404B000462A630075
:04400E00E42FFF3F5D
:00000001FF
;PIC16F887
;CRC=2A02  CREATED="09-jul-13 12:15"
