:1000000001308A00332900000A108A100A11820781
:1000100028340C3401340634E8326C366F000C009E
:100020002830840083130008031923280230F800C5
:10003000F701F70B1928F80B18289730F700F70B82
:100040001F28800B162808002F0EF039F7000F30FC
:10005000080577048800000008142E282F280810AF
:1000600008000808F700080E0F39F800080083168A
:10007000081088100811831288100F3083160805A5
:10008000F0388800831208150000081400003120A1
:100090007808AF000810000008144E2831207808B6
:1000A000AE0008100F3083160805880083122F0E4B
:1000B000F700F030F70577082E04F8007808AE0056
:1000C000AE1B3D282C1C88102C1888140000081129
:1000D000000008102D0EAE000F30AE052E08AF0048
:1000E00024202D080F39AE00AF00242008000F3067
:1000F00083160805880008108810081183128810DC
:10010000081108100F30A80010200130A3002308A8
:10011000033C031C93280330AF0024200530A800C3
:100120001020A30A87280230AF0024200530A80041
:100130001020A3012308033C031CA7282308042044
:10014000A400AC012408AD003720A30A9A288A1124
:100150000A124A29290BAD28B0284030AA00B1283C
:10016000AA0101302802AA072A088038AB00AC0196
:100170002B08AD00372008002708073A0319CA28C2
:100180000B3A0319CF28063A0319D728023A031964
:10019000DD28E2280130A800A900AA20E728AC0148
:1001A0000130AD0037200230A8001020E7280130D0
:1001B000A8000230A900AA20E728AC011030AD0049
:1001C0003720E7280130AC002708AD0037200800B1
:1001D0000B08A3008B13831603178C170C14000055
:1001E000000083120C087F3903192F290313A40080
:1001F00003170D080313A50003170F080313A60028
:100200002408A700BC20250803178D000313260827
:1002100003178F0083168C170C1400000000831244
:100220000C0D0E0D7F3903192F290313A40003179A
:100230000D080313A50003170F080313A6002408D5
:10024000A700BC20250803178D00031326080317F9
:100250008F008D0A03198F0A0313EB28031703136A
:10026000A31B8B170800713083168F000F0803172C
:100270000908C039890003131F129F1200300317A9
:100280008800831287018801890183131F30830549
:10029000031377280130A1002108023C031C7029B8
:1002A0000130A2002208103C031C6E292208A8007D
:1002B0002108A900AA200C3003178D0000308F0000
:1002C0000313E820C830A80010200F3003178D005A
:1002D00000308F000313E820A20A5229A10A4C29FA
:0402E0004A29630044
:04400E00E42FFF3F5D
:00000001FF
;PIC16F887
;CRC=3A3B  CREATED="27-jun-13 13:04"
