:1000000001308A0040290000FF00030E8301A10097
:100010000A08A0008A010408A2007708A300780853
:10002000A4007908A5007A08A600831383128B1E0A
:100030001B280B192C28220884002308F700240809
:10004000F8002508F9002608FA0020088A00210E89
:100050008300FF0E7F0E09008A110A1237280A104A
:100060008A100A11820728340C3401340634B23065
:100070008100A70803194A28A7032830270784000E
:100080008313800803194928283027078400831325
:10009000800339280A30A7000B118A110A121B2885
:1000A0003530840083130008031963280230F800F8
:1000B000F701F70B5928F80B58289730F700F70B82
:1000C0005F28800B56280800390EF039F7000F30F2
:1000D000080577048800000008146E286F280810AF
:1000E00008000808F700080E0F39F8000800FF3074
:1000F000831687008312B200831609148914091528
:1001000089150030850085018312850183168500DD
:10011000091489100911891103170908C0398900C8
:1001200003131F129F122030031788001430F800A9
:10013000831203131F08C33978049F001F139F17EE
:1001400083169F1383121F140F308316080588002F
:1001500008108810081183128810081108100F3039
:10016000B50050200130B4003408033C031CC02803
:100170000330B90064200530B5005020B40AB4281B
:100180000230B90064200530B5005020B4013408B5
:10019000033C031C122934082F20B500B601350892
:1001A000B7008316081088100811831288100F30CA
:1001B00083160805F038880083120815000008141B
:1001C000000071207808B900081000000814E82821
:1001D00071207808B80008100F30831608058800D1
:1001E0008312390EF700F030F70577083804F8006D
:1001F0007808B800B81BD728361C88103618881421
:100200000000081100000810370EB8000F30B805C4
:100210003808B900642037080F39B800B9006420E5
:10022000B40AC7288A110A12582983160108C0394E
:100230000738810083128B16B23081008A110A12AE
:1002400059292830340784008313350880000800BA
:1002500028303407840083130008F8008A110A123A
:1002600063290130F7003408F80003193B29031013
:10027000F70DF80B3729770885068A110A126E29BF
:100280000A30A700FF30B200831603170908C039EF
:10029000890003131F129F12003003178800831276
:1002A00087018801890183131F3083050313772891
:1002B0001529C0308B040130B4003230B500212143
:1002C0000130B4002829F808031D6E290130B4005C
:1002D0003230B50021210430B40031296029630097
:04400E00E42FFF3F5D
:00000001FF
;PIC16F887
;CRC=FC74  CREATED="11-jul-13 12:41"
