:1000000000308A001A280000223084008313000880
:10001000031917280230F800F701F70B0D28F80B29
:100020000C289730F700F70B1328800B0A288A1149
:100030000A127328713083168F000F0803170908FE
:10004000C039890003131F129F1200300317880064
:10005000831287018801890183131F3083050313ED
:10006000A101003083168500091489100911891136
:1000700003170908C039890003131F129F1220308B
:10008000031788001430F800831203131F08C339C4
:1000900078049F001F139F1783169F1383121F144A
:1000A0009F149F1851281E08A1002108633C0318C3
:1000B00067282108963C031C67282108963C031CEE
:1000C000662883168501FF30831285006B2883160E
:1000D000850183128501831685018312210885001D
:0A00E0006430A200042850286300D9
:04400E00E42FFF3F5D
:00000001FF
;PIC16F887
;CRC=6E2B  CREATED="25-jun-13 13:08"
