:1000000000308A0018280000213084008313000883
:10001000031917280230F800F701F70B0D28F80B29
:100020000C289730F700F70B1328800B0A280800DC
:10003000713083168F000F0803170908C039890033
:1000400003131F129F1200300317880083128701C9
:100050008801890183131F30830500308316031341
:1000600085000130831285000508803C0319422871
:100070000508103C031D3F28C830A10004200310D0
:10008000850D3428050B45284F280508103C031919
:100090004C28C830A10004200310850C42283428C5
:0200A0006300FB
:04400E00E42FFF3F5D
:00000001FF
;PIC16F887
;CRC=5D8E  CREATED="27-jun-13 12:13"
