:1000000001308A00352900000A108A100A1182077F
:1000100028340C3401340634D024CE2F4318000089
:100020002630840083130008031923280230F800C7
:10003000F701F70B1928F80B18289730F700F70B82
:100040001F28800B162808002D0EF039F7000F30FE
:10005000080577048800000008142E282F280810AF
:1000600008000808F700080E0F39F800080083168A
:10007000081088100811831288100F3083160805A5
:10008000F0388800831208150000081400003120A1
:100090007808AD000810000008144E2831207808B8
:1000A000AC0008100F3083160805880083122D0E4F
:1000B000F700F030F70577082C04F8007808AC005A
:1000C000AC1B3D282A1C88102A188814000008112F
:1000D000000008102B0EAC000F30AC052C08AD0052
:1000E00024202B080F39AC00AD00242008000F306D
:1000F00083160805880008108810081183128810DC
:10010000081108100F30A60010200130A1002108AE
:10011000033C031C93280330AD0024200530A600C7
:100120001020A10A87280230AD0024200530A60047
:100130001020A1012108033C031CA728210804204A
:10014000A200AA012208AB003720A10A9A288A112E
:100150000A125929270BAD28B0284030A800B12831
:10016000A80101302602A80728088038A900AA01A2
:100170002908AB00372008002508073A0319CA28C8
:100180000B3A0319CF28063A0319D728023A031964
:10019000DD28E2280130A600A700AA20E728AA014E
:1001A0000130AB0037200230A6001020E7280130D4
:1001B000A6000230A700AA20E728AA011030AB0051
:1001C0003720E7280130AA002508AB0037200800B7
:1001D0000B08A1008B13831603178C170C14000057
:1001E000000083120C087F3903192F290313A20082
:1001F00003170D080313A30003170F080313A4002C
:100200002208A500BC20230803178D00031324082F
:1002100003178F0083168C170C1400000000831244
:100220000C0D0E0D7F3903192F290313A20003179C
:100230000D080313A30003170F080313A4002208DB
:10024000A500BC20230803178D00031324080317FF
:100250008F008D0A03198F0A0313EB28031703136A
:10026000A11B8B178A110A126029713083168F0027
:100270000F08FF308312A000831603170908C03946
:10028000890003131F129F12003003178800831286
:1002900087018801890183131F308305013083168C
:1002A000031387008312A000003083168500831299
:1002B00077280C3003178D0000308F000313E828D7
:1002C00020142008831687008312071C6D298316CB
:1002D00085010130831285007129831685018312FF
:0602E000850159296300AD
:04400E00E42FFF3F5D
:00000001FF
;PIC16F887
;CRC=CAF1  CREATED="28-jun-13 12:52"
