:1000000001308A00D72900000A108A100A118207DD
:1000100028340C34013406340C002B308400831354
:100020000008031920280230F800F701F70B162802
:10003000F80B15289730F700F70B1C28800B1328B6
:100040000800320EF039F7000F30080577048800F9
:10005000000008142B282C28081008000808F700B6
:10006000080E0F39F80008008316081088100811D0
:10007000831288100F3083160805F0388800831229
:1000800008150000081400002E207808B20008109F
:10009000000008144B282E207808B10008100F30FB
:1000A0008316080588008312320EF700F030F7053A
:1000B00077083104F8007808B100B11B3A282F1CEA
:1000C00088102F1888140000081100000810300E46
:1000D000B1000F30B1053108B200212030080F39CE
:1000E000B100B200212008000F30831608058800F7
:1000F00008108810081183128810081108100F309A
:10010000AB000D200130A6002608033C031C9028FC
:100110000330B20021200530AB000D20A60A842850
:100120000230B20021200530AB000D20A6012608C8
:10013000033C031CA42826080420A700AF012708BD
:10014000B0003420A60A97288A110A12FC292C0B29
:10015000AA28AD284030AD00AE28AD0101302B02F9
:10016000AD072D088038AE00AF012E08B000342056
:1001700008002A08073A0319C7280B3A0319CC28A4
:10018000063A0319D428023A0319DA28DF28013085
:10019000AB00AC00A720E428AF010130B000342050
:1001A0000230AB000D20E4280130AB000230AC007F
:1001B000A720E428AF011030B0003420E42801303B
:1001C000AF002A08B000342008000B08A6008B13EB
:1001D000831603178C170C140000000083120C0800
:1001E0007F3903192C290313A70003170D080313E4
:1001F000A80003170F080313A9002708AA00B920B5
:10020000280803178D000313290803178F0083168E
:100210008C170C140000000083120C0D0E0D7F399A
:1002200003192C290313A70003170D080313A800B3
:1002300003170F080313A9002708AA00B9202808EC
:1002400003178D000313290803178F008D0A031964
:100250008F0A0313E82803170313A61B8B178A11B1
:100260000A121C2A24142408831687008312A6016C
:100270000718A60AA4142408831687008312A7016E
:100280008718A70A24152408831687008312A8015B
:100290000719A80AA4152408831687008312A90148
:1002A0008719A90A24162408831687008312AA0135
:1002B000071AAA0AA4162408831687008312AB0122
:1002C000871AAB0A831689148312AC018918AC0A09
:1002D000831609158312AD010919AD0AAE01A001FB
:1002E0002008073C031C862926302007840083133E
:1002F0000008F7002008F800031982290310F70D01
:10030000F80B7E297708AE07A00A70292E08F8009E
:100310008A110A121D2A2908F801280203189329B4
:100320002808F7009F29F7010830AA00A80DF70D4B
:10033000290877020318F700F80DAA0B9629080080
:1003400078082608A8006430A9008B217708A60049
:1003500078083030031DB329A71CBA29A719BA2978
:10036000271A2030B629A71127122714F807780872
:10037000AA00B9202608A8000A30A9008B21770816
:10038000A60078083030031DCB29A719CF29271CD8
:10039000CF29271A2030F8077808AA00B920303072
:1003A000A6072608AA00B9208A110A12242A713049
:1003B00083168F000F08031787110C300313990061
:1003C000A2309800903083129800FF30A40083166A
:1003D00003170908C039890003131F129F12003048
:1003E00003178800831287018801890183131F3056
:1003F00083050313A5017428831603170908C03960
:10040000890003131F129F12203003178800143035
:10041000F800831203131F08C33978049F001F13C9
:100420009F1783169F1383121F140C3003178D0020
:1004300000308F000313E52832297808A300230831
:10044000A6001B30A700A0290430A600FA30AB009C
:100450000D20A60B262A9F149F182C2A1E08A500E3
:04046000152A6300F6
:04400E00E42FFF3F5D
:00000001FF
;PIC16F887
;CRC=DC66  CREATED="03-jul-13 12:18"
