:1000000000308A005C280000FF00030E8301A1007D
:100010000A08A0008A010408A2007708A300780853
:10002000A4007908A5007A08A600831383128B1E0A
:100030001B280B192C28220884002308F700240809
:10004000F8002508F9002608FA0020088A00210E89
:100050008300FF0E7F0E09008A110A122F28B2308A
:100060008100B10803194228B10327303107840009
:100070008313800803194128273031078400831334
:10008000800331280A30B1000B118A110A121B2893
:10009000A908031D4F28203085060A30A9008A11BF
:1000A0000A128E28A808031D5928803085061430AE
:1000B000A8008A110A128F280A30B100831603178C
:1000C0000908C039890003131F129F12003003175B
:1000D0008800831287018801890183131F308305FB
:1000E0000313A701A801A901AA01AB01AC01AD014D
:1000F000AE01AF01B0018501003083168500010813
:10010000C0390738810083128B16C0308B04B2309F
:1001100081000A30A9001430A800482852288D28F0
:0201200063007A
:04400E00E72FFF3F5A
:00000001FF
;PIC16F887
;CRC=A206  CREATED="10-jul-13 12:11"
