:1000000000308A004D280000FF00030E8301A1008C
:100010000A08A0008A010408A2007708A300780853
:10002000A4007908A5007A08A600831383128B1E0A
:100030001B280B192C28220884002308F700240809
:10004000F8002508F9002608FA0020088A00210E89
:100050008300FF0E7F0E09008A110A122F28083034
:1000600085067F3081000B118A110A121B28273068
:1000700084008313000803194A280230F800F701AE
:10008000F70B4028F80B3F289730F700F70B46286E
:10009000800B3D288A110A126E288316031709085F
:1000A000C039890003131F129F1200300317880004
:1000B000831287018801890183131F30830583160A
:1000C00003130108C0390738810083128B16C03032
:1000D0008B047F308100C830A70037282030850688
:0400E0006B28630026
:04400E00E72FFF3F5A
:00000001FF
;PIC16F887
;CRC=C3E2  CREATED="10-jul-13 10:56"
