:1000000000308A0036280000FF00030E8301A100A3
:100010000A08A0008A010408A2007708A300780853
:10002000A4007908A5007A08A600831383128B1E0A
:100030001B280B192C28220884002308F700240809
:10004000F8002508F9002608FA0020088A00210E89
:100050008300FF0E7F0E09008A110A122F28B2308A
:100060008100A70A0B118A110A121B28A701831607
:1000700003170908C039890003131F129F120030AB
:1000800003178800831287018801890183131F30B9
:100090008305FF308316031385000108C039073834
:1000A000810083128B16C0308B04B2308100270888
:1000B0000A3C031D5E2820308506A70157286300EF
:04400E00E72FFF3F5A
:00000001FF
;PIC16F887
;CRC=D5B9  CREATED="10-jul-13 12:01"
