:1000000000308A0018280000213084008313000883
:10001000031917280230F800F701F70B0D28F80B29
:100020000C289730F700F70B1328800B0A280800DC
:10003000713083168F000F0803170908C039890033
:1000400003131F129F1200300317880083128701C9
:100050008801890183131F30830500308316031341
:1000600085008501AA3083128500C830A1000420D4
:1000700083168501553083128500C830A100042005
:0600800083163128630025
:04400E00E42FFF3F5D
:00000001FF
;PIC16F887
;CRC=27FA  CREATED="25-jun-13 10:51"
