:1000000000308A0089280000201420088316870009
:100010008312A2010718A20AA014200883168700E1
:100020008312A3018718A30A2015200883168700CE
:100030008312A4010719A40AA015200883168700BB
:100040008312A5018719A50A2016200883168700A8
:100050008312A601071AA60AA01620088316870095
:100060008312A701871AA70A831689148312A8018D
:100070008918A80A831609158312A9010919A90A62
:100080002208AA000310230DAA07240DF700F70D7C
:10009000FC30F7057708AA07250DF700F70DF70DD7
:1000A000F830F7057708AA07260EF700F030F705B5
:1000B0007708AA07270EF700F70DE030F705770855
:1000C000AA07280EF700F70DF70DC030F7057708DF
:1000D000AA07F7012918F7177708AA072A08F800CE
:1000E0008A110A12B12822308400831300080319F0
:1000F00086280230F800F701F70B7C28F80B7B28E4
:100100009730F700F70B8228800B79288A110A12A2
:10011000BB28713083168F000F08FF308312A000B8
:10012000831603170908C039890003131F129F1291
:100130000030031788008312870188018901831327
:100140001F308305FF308316031387008312A0003E
:100150008316091489140915891500308500831246
:1001600004287808A10083168501831221088500E0
:0A017000C830A2007328B028630015
:04400E00E42FFF3F5D
:00000001FF
;PIC16F887
;CRC=5CEF  CREATED="01-jul-13 11:52"
