:1000000000308A0074280000AB01211421088316F7
:1000100087008312A3010718A30AA11421088316DD
:1000200087008312A4018718A40A211521088316CA
:1000300087008312A5010719A50AA11521088316B7
:1000400087008312A6018719A60A211621088316A4
:1000500087008312A701071AA70AA1162108831691
:1000600087008312A801871AA80A831689148312AD
:10007000A9018918A90A831609158312AA01091969
:10008000AA0AAB01A0012008073C031C5928233011
:100090002007840083130008F7002008F8000319E4
:1000A00055280310F70DF80B51287708AB07A00A65
:1000B00043282B08F8008A110A129D282330840057
:1000C00083130008031971280230F800F701F70BB9
:1000D0006728F80B66289730F700F70B6D28800B20
:1000E00064288A110A12A728713083168F000F081E
:1000F0008312A001FF30A100831603170908C0393D
:10010000890003131F129F12003003178800831207
:1001100087018801890183131F308305FF3083160F
:10012000031387008312A10083160914891409158B
:10013000891500308500831204287808A2008316F0
:100140008501831222088500C830A3005E289C2800
:0201500063004A
:04400E00E42FFF3F5D
:00000001FF
;PIC16F887
;CRC=0434  CREATED="01-jul-13 12:24"
