:1000000001308A00882900000A108A100A1182072C
:1000100028340C34013406342A152A15A53A2A1539
:100020002A150000283084008313000803192528AE
:100030000230F800F701F70B1B28F80B1A2897304D
:10004000F700F70B2128800B182808002F0EF03935
:10005000F7000F30080577048800000008143028E6
:100060003128081008000808F700080E0F39F800BA
:1000700008008316081088100811831288100F30AA
:1000800083160805F038880083120815000008144C
:10009000000033207808AF00081000000814502832
:1000A00033207808AE0008100F308316080588004A
:1000B00083122F0EF700F030F70577082E04F800B2
:1000C0007808AE00AE1B3F282C1C88102C18881412
:1000D00000000811000008102D0EAE000F30AE0514
:1000E0002E08AF0026202D080F39AE00AF002620C5
:1000F00008000F30831608058800081088100811C2
:1001000083128810081108100F30A8001220013047
:10011000A2002208033C031C95280330AF002620D0
:100120000530A8001220A20A89280230AF0026203C
:100130000530A8001220A2012208033C031CA928B4
:1001400022080420A300AC012308AD003920A20A34
:100150009C288A110A12A029290BAF28B228403006
:10016000AA00B328AA0101302802AA072A08803869
:10017000AB00AC012B08AD00392008002708073A76
:100180000319CC280B3A0319D128063A0319D928A8
:10019000023A0319DF28E4280130A800A900AC20A6
:1001A000E928AC010130AD0039200230A80012204E
:1001B000E9280130A8000230A900AC20E928AC01F0
:1001C0001030AD003920E9280130AC002708AD001F
:1001D000392008000B08A3008B13831603178C1714
:1001E0000C140000000003181C2983120C087F392E
:1001F0000313A40003170D080313A50003170F082A
:100200000313A6002408A700BE20250803178D00AD
:100210000313260803178F0083168C170C14000095
:10022000000083120313A20B162919298316031742
:100230001C293B298316031783120C0D0E0D7F39E1
:100240000313A40003170D080313A50003170F08D9
:100250000313A6002408A700BE20250803178D005D
:100260000313260803178F008D0A03198F0A031042
:100270000313A20BED28A31B8B1708002508F80118
:100280002402031846292408F7005229F7010830F0
:10029000A600A40DF70D250877020318F700F80D46
:1002A000A60B4929080078082208A4006430A5009C
:1002B0003E217708A20078083030031D6629A31C70
:1002C0006D29A3196D29231A20306929A31123123E
:1002D0002314F8077808A700BE202208A4000A30DB
:1002E000A5003E217708A20078083030031D7E2942
:1002F000A3198229231C8229231A2030F8077808A1
:10030000A700BE203030A2072208A700BE200800A8
:10031000713083168F000F0803170908C039890050
:1003200003131F129F1200300317880083128701E6
:100330008801890183131F3083050313A1017928E4
:100340000C3003178D0000308F00031004300313AE
:10035000A200EA202108A2001B30A30053210F3085
:1003600003178D0000308F00031004300313A20028
:10037000EA200230A200FA30A8001220A20BBB290A
:10038000A10A21080A3C0319A1010530A800013087
:10039000A900AC202108A2001B30A3005321B929D9
:0203A0006300F8
:04400E00E42FFF3F5D
:00000001FF
;PIC16F887
;CRC=BDEF  CREATED="28-jun-13 11:36"
