:1000000000308A00692800002508F801240203183E
:100010000C282408F7001828F7010830A600A40DC2
:10002000F70D250877020318F700F80DA60B0F2827
:10003000080078082208A4006430A500042077088E
:10004000A20078083030031D2C28A31C3428A319E3
:100050003428231A20302F28A31123122314F80741
:1000600078080C1E312899002208A4000A30A50047
:1000700004207708A20078083030031D4528A31912
:100080004A28231C4A28231A2030F80778080C1E17
:10009000472899003030A20722080C1E4D289900ED
:1000A0008A110A129228233084008313000803194E
:1000B00066280230F800F701F70B5C28F80B5B2884
:1000C0009730F700F70B6228800B59288A110A1223
:1000D0009B28713083168F000F08031787110C308F
:1000E00003139900A2309800903083129800A00169
:1000F000831603170908C039890003131F129F12C2
:100100000030031788008312870188018901831357
:100110001F30830503132008A1002108A2001B3013
:10012000A30019280A300C1E932899000430A2005D
:10013000FA30A3005328A20B9828A00A8B2863004A
:04400E00E42FFF3F5D
:00000001FF
;PIC16F887
;CRC=DAE0  CREATED="02-jul-13 12:26"
