:1000000000308A00BC2800002314230883168700D0
:100010008312A4010718A40AA314230883168700D7
:100020008312A5018718A50A2315230883168700C4
:100030008312A6010719A60AA315230883168700B1
:100040008312A7018719A70A23162308831687009E
:100050008312A801071AA80AA3162308831687008B
:100060008312A901871AA90A831689148312AA0187
:100070008918AA0A831609158312AB010919AB0A5C
:10008000AC01A0012008073C031C5828243020079D
:10009000840083130008F7002008F800031954288F
:1000A0000310F70DF80B50287708AC07A00A422878
:1000B0002C08F80008002708F80126020318632816
:1000C0002608F7006F28F7010830A800A60DF70DE5
:1000D000270877020318F700F80DA80B6628080018
:1000E00078082408A6006430A7005B207708A400E5
:1000F00078083030031D8328A51C8B28A5198B2870
:10010000251A20308628A51125122514F80778080D
:100110000C1E882899002408A6000A30A7005B203E
:100120007708A40078083030031D9C28A519A12861
:10013000251CA128251A2030F80778080C1E9E28B7
:1001400099003030A40724080C1EA4289900080048
:1001500024308400831300080319BB280230F80000
:10016000F701F70BB128F80BB0289730F700F70B21
:10017000B728800BAE280800713083168F000F0857
:10018000031787110C3003139900A23098009030A8
:1001900083129800A001FF30A300831603170908FB
:1001A000C039890003131F129F1200300317880003
:1001B000831287018801890183131F308305FF3073
:1001C0008316031387008312A3008316091489146E
:1001D00009158915831204207808A2008316850169
:1001E0008312220885002208A4001B30A50070207D
:1001F0000A300C1EF9289900C830A400A820210854
:100200002202031D072904207808A10016290420D2
:100210007808A10004207808A2002208A4001B305E
:10022000A50070200A300C1E13299900C830A400C4
:06023000A820EB2863008A
:04400E00E42FFF3F5D
:00000001FF
;PIC16F887
;CRC=1E3E  CREATED="03-jul-13 11:01"
