:1000000000308A00B52800008A224C10E330F2301C
:10001000633A6539A032731DA01275000B08A30066
:100020008B13831603178C170C14000000000318A1
:10003000412883120C087F390313A40003170D080D
:100040000313A50003170F080313A60024080C1EB2
:1000500027289900250803178D0003132608031786
:100060008F0083168C170C140000000083120313FA
:10007000A20B3B283E2883160317412861288316CC
:10008000031783120C0D0E0D7F390313A400031701
:100090000D080313A50003170F080313A600240877
:1000A0000C1E50289900250803178D0003132608FD
:1000B00003178F008D0A03198F0A03100313A20B75
:1000C0001128A31B8B178A110A12E6282508F801AC
:1000D000240203186E282408F7007A28F701083054
:1000E000A600A40DF70D250877020318F700F80DF8
:1000F000A60B7128080078082208A4006430A50027
:1001000066207708A20078083030031D8E28A31CD3
:100110009628A3199628231A20309128A311231278
:100120002314F80778080C1E932899002208A400CD
:100130000A30A50066207708A20078083030031D39
:10014000A728A319AC28231CAC28231A2030F807B1
:1001500078080C1EA92899003030A20722080C1E2E
:10016000AF2899008A110A12EB28713083168F008C
:100170000F08031787110C3003139900A230980061
:10018000903083129800831603170908C03989003C
:1001900003131F129F120030031788008312870178
:1001A0008801890183131F30830503138C1EEB28FC
:1001B0008C1ED8281A08A100043003178D000030C7
:1001C0008F00031011300313A2000E282108A20093
:0A01D0001B30A3007B28D628630033
:04400E00E42FFF3F5D
:00000001FF
;PIC16F887
;CRC=F0D6  CREATED="02-jul-13 13:00"
