:1000000001308A00302900000A108A100A11820784
:1000100028340C340134063425308400831300085E
:1000200003191F280230F800F701F70B1528F80B09
:1000300014289730F700F70B1B28800B12280800B4
:100040002C0EF039F7000F30080577048800000007
:1000500008142A282B28081008000808F700080EA2
:100060000F39F80008008316081088100811831251
:1000700088100F3083160805F038880083120815A1
:100080000000081400002D207808AC0008100000C3
:1000900008144A282D207808AB0008100F3083166A
:1000A0000805880083122C0EF700F030F70577085A
:1000B0002B04F8007808AB00AB1B3928291C8810EA
:1000C0002918881400000811000008102A0EAB003F
:1000D0000F30AB052B08AC0020202A080F39AB00ED
:1000E000AC00202008000F30831608058800081097
:1000F0008810081183128810081108100F30A5000D
:100100000C200130A2002208033C031C8F2803307E
:10011000AC0020200530A5000C20A20A8328023064
:10012000AC0020200530A5000C20A2012208033CD1
:10013000031CA32822080420A300A9012308AA0065
:100140003320A20A96288A110A1249292508F801A3
:1001500024020318AE282408F700BA28F701083053
:10016000A600A40DF70D250877020318F700F80D77
:10017000A60BB1280800260BBE28C1284030A700D6
:10018000C228A70101302502A70727088038A80048
:10019000A9012808AA00332008002408073A0319F7
:1001A000DB280B3A0319E028063A0319E828023A3B
:1001B0000319EE28F3280130A500A600BB20F8287B
:1001C000A9010130AA0033200230A5000C20F82834
:1001D0000130A5000230A600BB20F828A90110308C
:1001E000AA003320F8280130A9002408AA003320EF
:1001F000080078082208A4006430A500A62077082B
:10020000A20078083030031D0C29A31C1329A31960
:100210001329231A20300F29A31123122314F807BE
:100220007808A400CD202208A4000A30A500A6204A
:100230007708A20078083030031D2429A319282943
:10024000231C2829231A2030F8077808A400CD2081
:100250003030A2072208A400CD208A110A124E29AC
:10026000713083168F000F0803170908C039890001
:1002700003131F129F120030031788008312870197
:100280008801890183131F3083052D300313A100DA
:1002900073282108A2001B30A300F9284E2963000F
:04400E00E42FFF3F5D
:00000001FF
;PIC16F887
;CRC=EDA2  CREATED="27-jun-13 12:00"
